:020000040800F2
:1000000000000120C50500081506000815060008B7
:100010001506000815060008150600080000000077
:1000200000000000000000000000000015060008AD
:10003000150600080000000015060008F901000878
:100040001506000815060008150600081506000824
:100050001506000815060008150600081506000814
:100060001506000815060008150600081506000804
:1000700015060008150600081506000815060008F4
:100080001506000815060008150600080000000007
:10009000000000000000000000000000150600083D
:1000A00015060008150600081506000815060008C4
:1000B00015060008150600081506000815060008B4
:1000C00015060008150600081506000815060008A4
:1000D00015060008150600081506000800000000B7
:1000E00015060008150600081506000800000000A7
:1000F00000000000000000000000000015060008DD
:100100000000000015060008150600081506000886
:1001100000000000000000000000000000000000DF
:100120001506000815060008150600081506000843
:10013000150600080000000000000000000000009C
:10014000000000000000000000000000150600088C
:100150001506000815060008150600081506000813
:100160001506000815060008000000000000000049
:10017000000000000000000000000000000000007F
:10018000000000001506000800000000000000004C
:040190001506000848
:1001940010B5054C237833B9044B13B10448AFF3BD
:1001A40000800123237010BD0C000020000000001B
:1001B4006006000808B5034B1BB103490348AFF3BD
:1001C400008008BD00000000100000206006000848
:1001D40008B500F0B5F900F011F84FF400510448E7
:1001E40000F020F94FF4FA7000F0D6F9F5E700BFFB
:1001F4000008024008B500F0BDF908BD30B587B06D
:1002040000240194029403940494059400940F4BE5
:100214001A6B42F004021A631B6B03F0040300938D
:10022400009B0B4D22464FF40051284600F0F4F891
:100234004FF400530193012302930394049401A9FE
:10024400284600F011F807B030BD00BF0038024066
:1002540000080240034AD2F8883043F47003C2F81D
:100264008830704700ED00E000230F2B00F2CA80B5
:10027400F0B482B05DE086685F000324BC4026EAE7
:100284000406CC68BC4034438460466826EA02060F
:100294004C68C4F300129A403243426056E0DC08D2
:1002A400083450F8247003F0070296000F22B2407D
:1002B40027EA02070A69B2403A4340F8242059E089
:1002C400042200E00022B2403A4302344E4E46F883
:1002D40024204E4A1468EA4302EA04064F6817F4DD
:1002E400803F01D045EA0406484C2660646802EA6F
:1002F40004064F6817F4003F01D045EA0406434C56
:100304006660A46802EA04064F6817F4801F01D0EF
:1003140045EA04063D4CA660E46822404E6816F4A3
:10032400001F01D045EA0402384CE26001330F2B70
:1003340065D801229A400C6804EA0205AA42F5D164
:100344004C6804F00304013C012C94D94A6802F07F
:100354000302032A09D0C4685E000322B24024EADF
:1003640002048A68B2402243C2604A6802F003026F
:10037400022A94D004685E000322B24024EA0204F4
:100384004A6802F00302B240224302604A6812F053
:10039400805FCBD0002201921D4A546C44F4804407
:1003A4005464526C02F480420192019A9C08A61C87
:1003B400154A52F8267003F0030296000F22B24049
:1003C40027EA0207134A90423FF47CAF02F58062A9
:1003D40090420ED002F5806290420CD002F5806209
:1003E40090420AD002F5806290423FF469AF07223E
:1003F40069E7012267E7022265E7032263E702B0A7
:10040400F0BC7047704700BF00380140003C014019
:10041400003802400000024012B9090481617047AB
:1004240081617047436901EA030221EA030141EA59
:100434000241816170470000074AD36823F4E063F6
:100444001B041B0C000200F4E060184340F0BF6082
:1004540040F40030D060704700ED00E030B4174B3A
:10046400DB68C3F30223C3F10704042C28BF04246C
:100474001D1D062D18D9033B4FF0FF3505FA04F472
:1004840021EA0401994005FA03F322EA030319431C
:1004940000280BDB0901C9B200F1604000F561409E
:1004A40080F8001330BC70470023E5E700F00F002C
:1004B4000901C9B2024B1954F4E700BF00ED00E092
:1004C40014ED00E00138B0F1807F0AD2064B586089
:1004D400064AF02182F823100020986007221A604F
:1004E40070470120704700BF10E000E000ED00E01D
:1004F4007047000010B504460E4B18784FF47A7319
:10050400B3FBF0F30C4A1068B0FBF3F0FFF7DAFF2B
:1005140068B90F2C01D901200AE0002221464FF0CE
:10052400FF30FFF79BFF054B1C60002000E001201B
:1005340010BD00BF040000200000002008000020BF
:1005440008B50B4B1A6842F400721A601A6842F438
:1005540080621A601A6842F480721A600320FFF7FE
:100564006BFF0020FFF7C6FFFFF7C2FF002008BDA6
:10057400003C0240034A1168034B1B780B44136090
:10058400704700BF2800002004000020014B1868B9
:10059400704700BF2800002038B50446FFF7F6FF77
:1005A4000546B4F1FF3F02D0044B1B781C44FFF70F
:1005B400EDFF401BA042FAD338BD00BF0400002069
:1005C400DFF834D00D480E490E4A002302E0D45817
:1005D400C4500433C4188C42F9D30B4A0B4C002387
:1005E40001E013600432A242FBD3FFF733FE00F0B4
:1005F40011F8FFF7EDFD7047000001200000002016
:100604000C000020800600080C0000202C000020B4
:10061400FEE7000070B50D4E0D4CA41BA410002580
:10062400A54209D10B4E0C4C00F018F8A41BA410E1
:100634000025A54205D170BD56F8253098470135EF
:10064400EEE756F8253098470135F2E778060008BA
:1006540078060008780600087C060008F8B500BF94
:10066400F8BC08BC9E467047F8B500BFF8BC08BC8F
:040674009E467047E7
:04067800B9010008BC
:04067C0095010008DC
:0C0680000024F400010000001000000045
:04000005080005C525
:00000001FF
